:020000020000FC
:1000000000C007E004B9249825982C9A2D9A2398CB
:100010002B9A10E0332700E40F775DD000C01C99C5
:1000200003C01D9B04C007C01D99F9CF00C010314B
:1000300029F0139503C0113009F01A9508D04BD060
:1000400001D0EDCF1C9BFECF1D9BFCCF089500E49B
:10005000103001F11130F9F01230F9F01330F9F0ED
:100060001430F9F01530F9F01630F9F01730F9F0D6
:100070001830F9F01930F9F01A30F9F01B30F9F0B6
:100080001C30F9F01D30F9F01E30F9F01F30F9F096
:100090001031F9F008950FE3089506E008950BE597
:1000A00008950FE4089506E608950DE608950DE716
:1000B000089507E008950FE708950FE6089507E70C
:1000C00008950CE7089509E308950EE5089509E7FA
:1000D000089501E7089528E0001F10F0289801C056
:1000E000289A299A29982A95B9F72A9A2A98089538
:00000001FF
