:020000020000FC
:1006580046414E3D4F4E200046414E3D4F464600D6
:0406680044433D00CA
:020000000AC034
:02000C0043C0EF
:100014005AC00FEF0DBF08E00EBF08E204B90FE0AD
:1000240007B97DD1AAD0BDD000E00093000102E35E
:1000340000930201009102012FEF029F4BD1009324
:10004400010103B10093030109B1087107950795F4
:10005400079500930401559A05B1016005B904B1EF
:100064000E7F04B90BB108610BB905E00093680079
:1000740001E000936B0008E100936D0003E204BD0E
:1000840002E005BD00E008BD7894ADD000C0FFCF0C
:100094000F9303B100FF02C00F9118950091000166
:1000A40011E0012700930001002339F000910101C0
:1000B40008BD9ED0B7D00F91189500E008BD98D028
:1000C400B1D00F9118950F931F932F933F933FB780
:1000D40006D03FBF3F912F911F910F91189509B101
:1000E4000871069506950695109104010093040184
:1000F400212F22952C70202B213079F0273069F0A4
:100104002E3059F0283049F0223049F0263039F0A9
:10011400293029F02D3019F0089503D0089517D00F
:10012400089500910201043689F0039500930201B9
:10013400402F2FEF429FCED0009301010091010187
:1001440010910001112309F008BD6CD008950091AD
:100154000201002389F00A9500930201402F2FEF3A
:10016400429FB8D000930101009101011091000158
:10017400112309F008BD56D008952D9803E029D025
:10018400E9D027D0E7D025D0E5D002E022D0C7D0EF
:1001940008E20BD0C4D00CE008D006E006D001D0B1
:1001A400089501E002D0D6D008952D9804D0089582
:1001B4002D9A01D008951F932F93102F202F12955D
:1001C400012F07D02F70022F04D0A3D02F911F919D
:1001D400089518B1107F0F70012B08B92B9A99D08C
:1001E4002B9897D008951ED09AD002D098D0089515
:1001F40000ECDBDF00910001002319F0E8E5F6E0F4
:1002040002C0E0E6F6E000C00591003011F0D0DF56
:10021400FBCF08950191002311F0CADFFBCF0895AD
:10022400399308950F931F932F933F934F935F93A5
:10023400CF93DF93C5E0D1E000910201E02F41D0DC
:10024400203021F030E3320FEBDF02C030E2E8DF90
:1002540030E3310FE5DF3EE2E3DF30E3E1DF35E2B7
:10026400DFDF30E0DDDF03E8A0DFE8E6F6E0CCDF47
:10027400E5E0F1E0CFDFDF91CF915F914F913F91C6
:100284002F911F910F910895009102012FEF029F6A
:1002940021D00093010108BD0895552744277727ED
:1002A400662780E1661F771F001F111F440F551F2B
:1002B4006217730718F0621B730B41608A9591F7FC
:1002C40008954E2F22274A3018F04A502395FBCF29
:1002D400142F0895002740E054E60516140648F04C
:1002E400802D912D845640E0940B082E192E0395F1
:1002F400F2CF08952F932AE0002F1127222F3327BE
:10030400CCDF00E3040F54DF00E3060F51DF2F912D
:10031400089548EC000000004A95E1F7089500E0D4
:1003240000938100009380000CE00093810004E3BB
:10033400009388000CE00093890000E0009384009F
:1003440000938500B19A06B301FFFDCF00E000934E
:100354008100089500E000938100009380000CE088
:100364000093810009E60093880008E10093890066
:1003740000E00093840000938500B19A06B301FF66
:0A038400FDCF00E000938100089512
:00000001FF
