:020000020000FC
:1000000048656C6C6F20776F726C6421203A2D29E3
:1000100020202020202020202020202020202020E0
:1000200020202020202020203E3E20326E64206CA4
:10003000696E65203C3C20007FE077B978E274B9B6
:100040000FD0E0E0F0E001D0FFCF0590002039F0C4
:10005000029408B843D0029408B840D0F6CF08956F
:100060002D982B9840D083E088B938D057D083E0C2
:1000700088B934D048D083E088B930D044D082E009
:1000800088B92CD04BD082E088B928D047D088E0FE
:1000900088B924D043D080E088B920D03FD088E010
:1000A00088B91CD03BD080E088B918D037D081E027
:1000B00088B914D033D080E088B910D02FD08CE02C
:1000C00088B90CD02BD080E088B908D027D086E042
:1000D00088B904D023D02D9A21D008952B982B9A3B
:1000E00012D02B9808953F93AF938F9334E1ADE7EF
:1000F00085ED8A95F1F7AA95D9F73A95C1F78F91D1
:10010000AF913F910895AF938F93A8E084EA8A95C9
:10011000F1F7AA95D9F78F91AF910895AF938F9387
:10012000ACE785ED8A95F1F7AA95D9F78F91AF9154
:02013000089530
:00000001FF
