:020000020000FC
:0200000007C136
:100200007F065B4F666D7D077F6F777C395E797106
:1002100007E004B9249825982C9A2D9A10E03327EA
:1002200000E40F7722D000C01C9903C01D9B04C0BE
:1002300007C01D99F9CF00C0103129F0139503C0F4
:10024000113009F01A9508D010D001D0EDCF1C9BC9
:10025000FECF1D9BFCCF0895E0E0F1E02227212F87
:10026000220FE20FF21F0081089528E0001F10F016
:10027000289801C0289A299A29982A95B9F72A9A84
:040280002A9808951B
:00000001FF
